:020000042001D9
:1000000081457D46912805A0411106C6B722011001
:100010003703080023A4620023A06204B240410118
:10002000828023A6620001458145014681469308EE
:10003000D00573000000411106C6B7920010FD12F2
:10004000328332033363B30023A06200B240410124
:020050008280AC
:1000520068656C6C6F00411106C6370E0800B72345
:100062000110B75202100563090323A0020023A066
:10007200020223A2020223A4020223A6020223A84E
:10008200020023A4020023A0620009637D1323A2BD
:10009200620223A4620223A6620223A4020023AC0A
:0C00A200C30323AEC303B24041018280BF
:0400000520010000D6
:00000001FF
