:020000042001D9
:1000000017060000130686031D28411106C6B722F5
:1000100001103703080023A4620023A06204B24049
:100020004101828023A66200014581450146814647
:080030009308D00573000000E5
:1000380068656C6C6F00411106C6B7320110130376
:100048000000328F03030F006304030497000000CD
:10005800E780C000050FFDB783A30200370E0080BC
:100068006392C303638CC301411106C6B732011002
:10007800328397000000E78060FE19A883A302007E
:10008800E38EC3FF23A062000D4323A46200828095
:06009800B240410182802C
:0400000520010000D6
:00000001FF
